:020000042000DA
:101000000000022085240020752900207729002077
:10101000792900207B2900207D2900200000000084
:101020000000000000000000000000007F290020F8
:10103000812900200000000083290020852900204C
:10104000D5240020D5240020D5240020D52400203C
:10105000D5240020D5240020D5240020D52400202C
:10106000D5240020D5240020D5240020D52400201C
:10107000D5240020D5240020D5240020D52400200C
:10108000D5240020D5240020D5240020D5240020FC
:10109000D5240020D5240020D5240020D5240020EC
:1010A000D5240020D5240020D5240020D5240020DC
:1010B000D5240020D5240020D5240020D5240020CC
:1010C000D5240020D5240020D5240020D5240020BC
:1010D000D5240020D5240020D5240020D5240020AC
:1010E000D5240020D5240020D5240020D52400209C
:1010F000D5240020D5240020D5240020D52400208C
:10110000D5240020D5240020D5240020D52400207B
:10111000D5240020D5240020D524002089290020B2
:10112000D5240020D5240020D5240020D52400205B
:10113000D52400200000000000000000D52400207D
:10114000D5240020D5240020D5240020D52400203B
:10115000D5240020D5240020D5240020D52400202B
:10116000D5240020D5240020D5240020D52400201B
:10117000D5240020D5240020D52400200000000024
:1011800000000000D5240020000000000000000046
:10119000D52400200000000000000000D52400201D
:1011A000000000000000000000000000D524002026
:1011B000D5240020D5240020D5240020D5240020CB
:0411C000D524002012
:1011C40010B5054C237833B9044B13B10448AFF37D
:1011D40000800123237010BD4C2A00200000000071
:1011E400EC29002008B5034B1BB103490348AFF3B6
:1011F400008008BD00000000502A0020EC290020D7
:1012040053B94AB9002908BF00281CBF4FF0FF3169
:101214004FF0FF3000F070B9ADF1080C6DE904CE69
:1012240000F006F8DDF804E0DDE9022304B07047BD
:101234002DE9F047089E0D4604460F46002B4AD17F
:101244008A42944665D9B2FA82F343B102FA03FCA6
:10125400C3F120029F4020FA02F217439C404FEA58
:101264001C4E1FFA8CF5B7FBFEF1220C0EFB117716
:1012740042EA074201FB05F090420AD91CEB020244
:1012840001F1FF3780F01C81904240F2198102394C
:101294006244121AA4B2B2FBFEF00EFB102244EA1E
:1012A400024400FB05F5A5420AD91CEB040400F135
:1012B400FF3280F00781A54240F204816444023881
:1012C40040EA0140641B00211EB1DC400023C6E952
:1012D4000043BDE8F0878B4208D9002E00F0ED8072
:1012E4000021C6E900050846BDE8F087B3FA83F19A
:1012F400002949D1AB4202D3824200F2F880841A19
:1013040065EB030201201746002EE2D0C6E9004730
:10131400DFE702B9FFDEB2FA82F3002B40F09080DF
:101324008A1A4FEA1C471FFA8CFE0121B2FBF7F51B
:1013340007FB1520220C42EA00420EFB05F0904206
:1013440008D91CEB020205F1FF3802D2904200F2E8
:10135400CB804546121AA4B2B2FBF7F007FB102269
:1013640044EA02440EFB00FEA64508D91CEB040423
:1013740000F1FF3202D2A64500F2BB801046A4EB76
:101384000E0440EA05409FE7C1F120078B4022FA92
:1013940007FC4CEA030C05FA01F420FA07F3FD40BC
:1013A4004FEA1C492343B5FBF9F81FFA8CFE09FBED
:1013B40018551C0C44EA054408FB0EF5A54202FA34
:1013C40001F200FA01F00BD91CEB040408F1FF3A16
:1013D40080F08880A54240F28580A8F10208644428
:1013E400641B9DB2B4FBF9F309FB134445EA0444BE
:1013F40003FB0EFEA64508D91CEB040403F1FF35DC
:101404006CD2A6456AD9023B644443EA0843A3FB71
:101414000295A4EB0E04AC42C846AE4656D353D054
:1014240056B1B0EB080264EB0E0404FA07F7CA40A5
:10143400CC401743C6E9007418460021BDE8F08784
:10144400C3F1200102FA03FC20FA01F225FA01F1AA
:101454009D402A434FEA1C471FFA8CFEB1FBF7F06C
:1014640007FB1015110C41EA054100FB0EF58D42F6
:1014740004FA03F408D91CEB010100F1FF382FD260
:101484008D422DD902386144491B92B2B1FBF7F564
:1014940007FB151142EA014205FB0EF1914208D9FE
:1014A4001CEB020205F1FF3816D2914214D9023D19
:1014B4006244521A45EA004138E73146304608E7AB
:1014C4003946E6E61046FBE64845A9D2B9EB0208E0
:1014D40065EB0C0E013BA3E74546EAE72B4694E790
:1014E4004046D1E7D0467BE7023D624432E70846F6
:1014F4000AE76444023842E7704700BFF0B5194B6D
:1015040089B0044608BB01901A6B42F002021A63C8
:101514001B6B03F002030193019B134B134D33F830
:10152400146055F82400039600270123CDE90437FD
:1015340003A90223069300F0CDFA55F824003A4695
:10154400314600F09BFB09B0F0BD002202921A6BF9
:1015540042F002021A631B6B03F002030293029B24
:10156400DBE700BF00380240042A0020342A0020B0
:10157400044B33F81010044B012253F8200000F000
:101584007DBB00BF042A0020342A0020044B33F81A
:101594001010044B002253F8200000F06FBB00BF72
:1015A400042A0020342A00200E49D1F8883043F45C
:1015B4007003C1F888300C4B1A68002042F0010215
:1015C4001A6098601A6822F0847222F480321A60D9
:1015D400064A5A601A6822F480221A60D860044BC2
:1015E4008B60704700ED00E00038024010300024AA
:1015F400001000207047000038B50E4B1A784FF4E5
:101604007A73B3FBF2F30C4A05461068B0FBF3F0AF
:1016140000F096F8044658B90F2D09D80246294619
:101624004FF0FF3000F05AF8044B20461D6038BDDF
:101634000120FCE7442A0020402A0020482A0020F8
:1016440008B5094B1A6842F400721A601A6842F429
:1016540080721A60032000F02FF80F20FFF7CCFFF0
:10166400FFF7C8FF002008BD003C0240034A044BBA
:1016740011681B780B441360704700BF682A002070
:10168400442A0020014B1868704700BF682A0020D4
:1016940038B50446FFF7F6FF631C1CBF054B1B78E7
:1016A400054618BFE418FFF7EDFF431BA342FAD326
:1016B40038BD00BF442A00200749CA6822F4E0620A
:1016C4000302120403F4E063120C134343F0BF63F8
:1016D40043F40033CB60704700ED00E0164B30B5A7
:1016E400DC68C4F30224C4F10703251D042B28BFBE
:1016F4000423062D4FF0FF358CBF033C002405FA6C
:1017040003F321EA0303A54022EA0502A3400028CB
:1017140043EA0203ACBF00F16040084A4FEA0313F6
:10172400B8BF00F00F00DBB2AABF00F5614013544C
:1017340080F8003330BD00BF00ED00E014ED00E0A0
:101744000138B0F1807F0BD24FF0E023054A586195
:10175400F02182F823100020072298611A61704753
:101764000120704700ED00E0094910B50C6924F42C
:1017740040740C610C6944F440740C610C6944F0CD
:1017840001040C610260BFF36F8F436010BD00BFA2
:10179400003C0240074B1A6922F440721A611A692C
:1017A40042F400721A611A6942F001021A6101607E
:1017B400704700BF003C0240074B1A6922F4407294
:1017C4001A611A6942F480721A611A6942F00102BC
:1017D4001A610180704700BF003C0240204BDA6868
:1017E400D00606D51F49CA6942F01002CA61102208
:1017F400DA60DA68910606D51A49CA6942F0080225
:10180400CA612022DA60164BDA68520606D51549F9
:10181400CA6942F00402CA614022DA60DA6810063A
:1018240006D51049CA6942F00202CA618022DA6010
:101834000B4BDA68D10507D50A49CA6942F001029F
:10184400CA614FF48072DA60DA68920706D50549F6
:10185400CA6942F02002CA610222DA60704700BFFE
:10186400003C02406C2A0020064B1A69002ABFBFC4
:10187400054A5A6002F188325A60BABF1869C00F2B
:1018840000207047003C024023016745034A136966
:1018940043F0004313610020704700BF003C024046
:1018A400114B70B500220446DA61FFF7EBFE0F4DD1
:1018B4000646EB68DA030CD4EB68DB0744BF01236C
:1018C400EB60E86810F4F97007D0FFF787FF012098
:1018D40003E0611CEDD00CB9032070BDFFF7D2FE0C
:1018E400801BA042E5D9F7E76C2A0020003C0240A7
:1018F400F7B5204E01931446327E012A07460D4661
:1019040035D001224CF250303276FFF7C9FFB8B916
:10191400019BCFB9184B1A6922F440721A611A69F3
:101924001A611A69E4B242F001021A612C704CF295
:101934005030FFF7B5FF104A136923F00103136118
:101944000023337603B0F0BD012F04D1A1B22846A1
:10195400FFF732FFEBE7022F04D121462846FFF7B9
:1019640019FFE4E722462846FFF7FEFEDFE70220E0
:10197400E8E700BF6C2A0020003C0240074B1A69CC
:1019840022F440721A611A6942F004021A611A6957
:1019940042EA002040F4803018617047003C024065
:1019A4000D4B1A6922F440721A611A69022994BF14
:1019B40009024FF440710A431A611A6922F0F802CD
:1019C4001A611A6942EAC00040F0020018611A69FB
:1019D40042F480321A617047003C0240144B1A688A
:1019E40091050FD51A6822F400721A601A6842F43D
:1019F40000621A601A6822F400621A601A6842F4DB
:101A040000721A600A4B1A6852050FD51A6822F43C
:101A140080621A601A6842F480521A601A6822F4CA
:101A240080521A601A6842F480621A60704700BFDC
:101A3400003C02402DE9F843DFF8948098F8183010
:101A4400012B05460F463FD001234CF2503088F855
:101A54001830FFF725FF0446A0B94FF0FF333B6071
:101A64002B68012B14D1287CFFF788FF4CF25030EF
:101A7400FFF716FF154A136923F0040304461361A4
:101A8400FFF7ACFF002388F818302046BDE8F88340
:101A9400AE68DFF83890D5E902231344B342EFD996
:101AA400297C3046FFF77CFF4CF25030FFF7F8FEFC
:101AB400D9F8103023F0FA03C9F8103010B13E60A1
:101AC4000446DDE70136E6E70224DEE7003C024097
:101AD4006C2A00202DE9F74FDFF89C91644A00231B
:101AE4000D6801249C4004EA050CAC4340F0AD8031
:101AF4004D6805F003044FEA43080326671E06FAFF
:101B040008F6012F6FEA060634D8876807EA060E3E
:101B1400CF6807FA08F747EA0E078760476827EA9D
:101B24000C0EC5F300179F4047EA0E074760C768CD
:101B340007EA060E8F6807FA08F747EA0E07022C31
:101B4400C76019D14FEAD30A00EB8A0A03F0070BE6
:101B5400DAF820704FEA8B0B4FF00F0E0EFA0BFEE3
:101B640027EA0E0E0F6907FA0BF747EA0E07CAF8C1
:101B7400207001E0032CDAD1076804FA08F4374036
:101B84003C4315F4403F04605FD04FF0000ACDF8A9
:101B940004A0D9F84460374C46F48046C9F8446040
:101BA400D9F8446006F480460196019E23F00306AA
:101BB40006F1804606F59C3603F0030ED6F808803D
:101BC4004FEA8E0E0F2707FA0EF7A04228EA0707FE
:101BD40042D004F58064A04240D004F58064A04261
:101BE4003ED004F58064A0423CD004F58064A04259
:101BF4003AD004F58064A04238D004F58064A04251
:101C04000CBF0624072404FA0EF43C43B460946821
:101C14006FEA0C06EF0254BF34404CEA04049460AB
:101C2400D468AF0254BF34404CEA0404D46054680E
:101C3400AF0354BF34404CEA040454601468ED0309
:101C440054BF34404CEA040414600133102B7FF475
:101C540047AF03B0BDE8F08F5446D4E70124D2E780
:101C64000224D0E70324CEE70424CCE70524CAE702
:101C7400003C014000000240003802400AB181618A
:101C840070470904FBE7000037B500230193184BA4
:101C9400184D1A6C42F080521A641B6C03F0805386
:101CA4000193019B144B01221A64FFF7EBFC0446D9
:101CB4006B68DA030BD5104B0E4D01225A64FFF703
:101CC400E1FC04466B689B030AD5002006E0FFF79D
:101CD400D9FC001BB0F57A7FEAD9032003B030BDEC
:101CE400FFF7D0FC001BB0F57A7FEBD9F5E700BF16
:101CF400003802400070004000000E422DE9F3411C
:101D0400044640B30368DD0710D4236898075BD406
:101D140023681A0700F19D8023685B0700F1BD80EA
:101D2400A069002840F0248100202CE08D4B9A68A3
:101D340002F00C02042A07D09A6802F00C02082A66
:101D44000BD15B68590208D5864B1B689A03DCD516
:101D54006368002BD9D1012015E06368814DB3F588
:101D6400803F13D12B6843F480332B60FFF78AFC48
:101D74007C4E054633689B03C7D4FFF783FC401BA6
:101D84006428F7D9032002B0BDE8F081B3F5A02F91
:101D940004D12B6843F480232B60E3E72A6822F400
:101DA40080322A602A6822F480222A60002BDDD146
:101DB400FFF768FC06462B689F03A6D5FFF762FC75
:101DC400801B6428F7D9DDE7664B9A6812F00C0F84
:101DD40007D09A6802F00C02082A11D15B685E02EF
:101DE4000ED4604A13689D0702D5E368012BB2D173
:101DF4001368216923F0F80343EAC103136087E7FA
:101E0400E268594BB2B101221A60FFF73BFC554D11
:101E140006462B68980707D52B68226923F0F80338
:101E240043EAC2032B6073E7FFF72CFC801B0228F4
:101E3400EFD9A7E71A60FFF725FC4A4E0546336839
:101E440099077FF565AFFFF71DFC401B0228F6D903
:101E540098E76269444B82B10122C3F8802EFFF7F0
:101E640011FC404E0546736F9F073FF555AFFFF7D2
:101E740009FC401B0228F6D984E7C3F8802EFFF73B
:101E840001FC384E0546736F98077FF545AFFFF7A1
:101E9400F9FB401B0228F6D974E7324B1A6C12F096
:101EA400805228D101921A6C42F080521A641B6C41
:101EB40003F080530193019B01272C4D2B68D90516
:101EC4001BD5A368274D012B27D12B6F43F00103AA
:101ED4002B67FFF7D7FB234E054641F28838336F53
:101EE4009B0739D5002F3FF41BAF1E4A136C23F018
:101EF4008053136414E70027DFE72B6843F48073EF
:101F04002B60FFF7BFFB06462B68DA05D9D4FFF731
:101F1400B9FB801B0228F7D934E7052B04D12B6FBA
:101F240043F004032B67D0E72A6F22F001022A67EB
:101F34002A6F22F004022A67002BCAD1FFF7A2FB02
:101F440041F2883806462B6F9807CBD5FFF79AFBEA
:101F5400801B4045F7D915E7FFF794FB401B40452C
:101F6400BDD90FE70038024000004742007000402E
:101F7400394DAB6803F00C03082B3DD0374B0022DE
:101F840002281A662BD1FFF77DFB06462B689901C0
:101F94001FD4D4E907321343626A43EA8213E26A24
:101FA40043EA0263A26A5208013A43EA02436B60BD
:101FB4002A4B294D01221A66FFF764FB04462B685D
:101FC4009A013FF5B1AEFFF75DFB001B0228F6D97D
:101FD400D8E6FFF757FB801B0228D7D9D2E6FFF7D4
:101FE40051FB04462B689B017FF59EAEFFF74AFB2D
:101FF400001B0228F6D9C5E601283FF4C4AE6B687D
:10200400E26903F4800191427FF4A5AE216A03F0F2
:102014003F028A427FF49FAE616A47F6C0721A405B
:10202400B2EB811F7FF497AEA26A520803F44031E9
:10203400013AB1EB024F7FF48EAEE16A03F07062B5
:10204400B2EB016F7FF487AE226B03F0E043B3EB96
:10205400027F3FF469AE7EE600380240000047424A
:10206400134908B58B6803F00C03042B1CD0082B10
:102074001CD14A684B68496813F4800314BF0D48A7
:102084000D48C1F3881118BF002302F03F02A1FBE1
:102094000001FFF7B5F8064B5B68C3F30143013356
:1020A4005B00B0FBF3F008BD0248FCE70248FAE726
:1020B4000038024000127A000024F4002DE9F041B7
:1020C4000D46044610B90120BDE8F081434B1A685F
:1020D40002F00F028A4228D321688F072DD4C80743
:1020E40040D43E4B1A6802F00F02AA4265D8226817
:1020F40051076BD4130707D5394A2169936823F430
:10210400604343EAC1039360FFF7AAFF344B354AA7
:102114009B68C3F30313D35CD840334B1860334B31
:102124001868FFF769FA0020CEE7CAB21A701B6874
:1021340003F00F038B42C6D1CEE7294B11F0040FF5
:102144001EBF9A6842F4E0529A600E0742BF9A6832
:1021540042F460429A609A68A06822F0F002024356
:102164009A60BCE762681E4B012A1CD11B6813F4F9
:10217400003FA8D01A4EB36823F003031343B3609F
:10218400FFF780FA41F288380746B368626803F0C3
:102194000C03B3EB820FA4D0FFF774FAC01B4045C5
:1021A400F3D9032090E7911E01291B6802D813F08C
:1021B400007FDEE713F0020FDBE7EAB21A701B6858
:1021C40003F00F03AB427FF47EAF90E70449E0686D
:1021D4008B6823F4E05303438B608BE7003C02409D
:1021E400003802400A2A0020402A0020482A002001
:1021F400044B054A9B68C3F38223D35C034A1068EB
:10220400D8407047003802401A2A0020402A002093
:10221400044B054A9B68C3F34233D35C034A1068FA
:10222400D8407047003802401A2A0020402A002073
:102234007047704770477047036870B5DD681E6962
:10224400B10704460DD5AA070BD56FF002021A6137
:10225400012202779B699B0769D0FFF7EAFF0023FD
:102264002377710710D56A070ED523686FF004022F
:102274001A61022222779B6913F4407F20465CD0C6
:10228400FFF7D7FF0023237733070FD528070DD592
:1022940023686FF008021A6104222277DB69990728
:1022A400204650D0FFF7C5FF00232377F20610D550
:1022B400EB060ED523686FF010021A61082222770C
:1022C400DB6913F4407F204643D0FFF7B2FF0023BD
:1022D4002377F00708D5E90706D523686FF00102D4
:1022E4001A61204600F002FB320608D52B0606D5FB
:1022F40023686FF080021A61204600F032F87006FD
:1023040008D5690606D523686FF040021A61204695
:10231400FFF791FFB20622D5AB0620D523686FF0F4
:10232400200220461A61BDE8704000F019B8FFF79A
:102334007FFF2046FFF77EFF91E7FFF779FF2046F6
:10234400FFF778FF9EE7FFF773FF2046FFF772FF62
:10235400AAE7FFF76DFF2046FFF76CFFB7E770BDF4
:10236400704770470268C168136923F440530B43F4
:1023740070B51361054683680069D16803436869D1
:102384000343E86921F4164121F00C0103430B4394
:10239400D3605369A96923F440730B4353611F4B02
:1023A4009A4203D003F580639A4223D1FFF730FFAA
:1023B400EB691921B3F5004FD5E90046A0FB0101F3
:1023C4001BD1B2194FF000035B41FEF719FF6422E1
:1023D400B0FBF2F102FB1103DB003233B3FBF2F387
:1023E40003F007025B0002EB011203F4F8731344D9
:1023F400A36070BDFFF7FCFEDAE7B200B30FFEF78F
:10240400FFFE6422B0FBF2F102FB11031B01323325
:10241400B3FBF2F303EB0113EAE700BF0010014042
:1024240010B5044648B390F8413003F0FF021BB9DD
:1024340080F8402000F05CFA2268242384F84130BC
:10244400D36823F40053D3602046FFF78BFF23683F
:102454001A6922F490421A615A6922F02A025A61D6
:10246400DA6842F40052DA6000202023606484F8C1
:10247400413084F84230606310BD0120FCE7000065
:10248400DFF834D00D480E490E4A002302E0D45838
:10249400C4500433C4188C42F9D30B4A0B4C0023A8
:1024A40001E013600432A242FBD3FFF77DF800F091
:1024B40077FA00F09FF9704700000220342A0020C8
:1024C4004C2A0020342A00204C2A0020CC2B002047
:1024D400FEE70378C72B84BF383303704378C72BD8
:1024E40084BF3833437090F8CA30C82B84BFC823E4
:1024F40080F8CA3070474378C21801339170437032
:1025040090F8CA300133DBB2C82B80F8CA3002BF5E
:10251400037801330370FFF7DCBF2DE9F04F90F827
:10252400CA700023A7F1050CC824634501DB002011
:1025340056E090F8008003EB0802B2FBF4F604FBCB
:10254400162202445D1C92783A2AEDB24AD105EB78
:102554000802B2FBF4F604FB162202449678FA1A37
:1025640006F1040A92453DDA4FF001094FF0000EDE
:1025740003EB090258FA82F2B2FBF4FB04FB1B22C0
:10258400024409F1010992785FFA89F97244CA4553
:102594005FFA82FEECDA5A1D324458FA82F2B2FB38
:1025A400F4F804FB18220244CEF1000E92785FFA8C
:1025B4008EFE724516D10124C825053607781A19EE
:1025C40057FA82F2B2FBF5F705FB1722024497781B
:1025D4000A190134E4B2A64202F8017CEEDA0120C1
:1025E400BDE8F08F2B46A0E710B594B0FFF728F8AC
:1025F4001422002108A800F0CBF91422002102A81B
:1026040000F0C6F900232A4A0093116C41F080516E
:102614001164126C02F080520092009A254A0193D0
:10262400116841F440411160126802F440420224EE
:102634000192CDE90D43019A07944FF0010C102249
:102644004FF0080EB42307A8CDE90AC2CDE90FE381
:10265400CDE911441394FFF751FB00B1FEE7FFF7F6
:1026640013FB00B1FEE70F23CDE9023404904FF4CD
:1026740080534FF4A050CDE90503052102A8FFF7CC
:102684001DFD00B1FEE70C4B0C4918614FF461428B
:10269400C3E90012C3E9020098610C22D86118460C
:1026A4005A61FFF7BDFE00B1FEE714B010BD00BFD4
:1026B4000038024000700040AC2A0020004800406E
:1026C40000F17843B3F5804F70B539D3A3F5804258
:1026D400B2F5804F36D3A3F50042B2F5804F33D321
:1026E400A3F54043B3F5804F30D300F1774000F5B4
:1026F4007F03B3F5803F2BD300F57E03B3F5003F92
:1027040028D300F57C00B0F5003F34BF062407242D
:10271400184D194A287800231646D9B288421BD886
:1027240016481749846000230360022303610123D0
:10273400C360FFF77FF9B0B10220FEF719FFFBE792
:102744000024E5E70124E3E70224E1E70324DFE7CB
:102754000424DDE70524DBE752F8041BA14203F15E
:102764000103DAD170BD2B7846F8234001332B7076
:10277400F8E700BF182B0020F82A00208C2A00203C
:10278400A82A00202DE9F041184CE57894F800803F
:10279400FDB9174BA6781B681E44637806EB032625
:1027A4003046FFF78DFF03342F46FBB2984502D81D
:1027B4002846BDE8F0810023B91914F8012F184602
:1027C400FFF796F801370028EFD00220FEF7D0FE7D
:1027D400FBE7012DECD0042D06D1637922791B048B
:1027E40003EB0263024A13600025E1E7192B002082
:1027F400F42A002070B5BAB0FFF7F6FE0024334B7C
:1028040001941A6B324842F002021A631B6B04945F
:1028140003F0020302250126019302A9019B0595F9
:10282400CDE90266FFF756F9224631462848FFF7FC
:1028340025FA2046FEF762FE3046FEF75FFE284684
:10284400FEF75CFEFFF710F8224BADF81C401D604C
:10285400214B8DF8E64006221A60204B204E1C6066
:10286400C3E902521D611F4C1F4D2B681A68920662
:10287400FCD5596807A8C9B2FFF73DFE3146FFF7FA
:102884004CFE0028F1D02368013323600023ADF807
:102894001C308DF8E630FFF775FF0128E5D1FEF70F
:1028A400F5FF4FF4FA70FEF7F3FE0020FEF760FE2A
:1028B4000220FEF75DFE4FF4FA70FEF7E9FE0020F9
:1028C400FEF764FE0220FEF761FEEAE700380240EC
:1028D40000040240A02A0020A42A00208C2A002000
:1028E400192B0020C82B0020AC2A002070470000C0
:1028F40010B588B01C4B1D4800220092196B41F0A2
:1029040008011963196B01F0080100910099019203
:10291400196B41F008011963196B01F00801019169
:10292400019902921A6C42F480221A641B6C03F41B
:10293400802302934FF48072029B0223CDE9032388
:1029440001210323CDE90513072403A90794FFF705
:10295400C1F84FF400730548039303A90794FFF7E4
:10296400B9F808B010BD00BF00380240000C0240A6
:102974007047FEE7FEE7FEE7FEE7704770477047E3
:10298400FEF774BE0148FFF757BC00BF802B002040
:1029940002440346934200D1704703F8011BF9E750
:1029A40070B50D4D0D4C641BA4100026A64209D130
:1029B4000B4D0C4C00F018F8641BA4100026A64222
:1029C40005D170BD55F8043B98470136EEE755F83C
:1029D400043B98470136F2E72C2A00202C2A0020D9
:1029E4002C2A0020302A0020F8B500BFF8BC08BC0F
:1029F4009E467047F8B500BFF8BC08BC9E467047B9
:102A040001008000004000000000000000000102FE
:102A14000304060708090000000001020304000083
:082A240010E8FF7F0100000033
:042A2C00E91100208C
:042A3000C5110020AC
:102A34000004024000040240000402400024F400A8
:082A4400010000001000000079
:04000005200024852E
:00000001FF
