:020000042000DA
:101000000000022009320020F1390020FF390020C1
:10101000053A00200B3A0020113A002000000000A1
:10102000000000000000000000000000173A00204F
:10103000253A002000000000333A0020413A002009
:1010400059320020593200205932002059320020F4
:1010500059320020593200205932002059320020E4
:1010600059320020593200205932002059320020D4
:1010700059320020593200205932002059320020C4
:1010800059320020593200205932002059320020B4
:1010900059320020593200205932002059320020A4
:1010A0005932002059320020593200205932002094
:1010B0005932002059320020593200205932002084
:1010C0005932002059320020593200205932002074
:1010D0005932002059320020593200205932002064
:1010E0005932002059320020593200205932002054
:1010F0005932002059320020593200205932002044
:101100005932002059320020593200205932002033
:101110005932002059320020593200205932002023
:101120005932002059320020593200205932002013
:101130005932002000000000000000005932002059
:1011400059320020593200205932002059320020F3
:1011500059320020593200205932002059320020E3
:1011600059320020593200205932002059320020D3
:10117000593200205932002059320020000000006E
:1011800000000000593200200000000000000000B4
:1011900059320020000000000000000059320020F9
:1011A0000000000000000000000000005932002094
:1011B0005932002059320020593200205932002083
:0411C0005932002080
:1011C40010B5054C237833B9044B13B10448AFF37D
:1011D40000800123237010BD383B00200000000074
:1011E400A43A002008B5034B1BB103490348AFF3ED
:1011F400008008BD000000003C3B0020A43A002011
:1012040053B94AB9002908BF00281CBF4FF0FF3169
:101214004FF0FF3000F070B9ADF1080C6DE904CE69
:1012240000F006F8DDF804E0DDE9022304B07047BD
:101234002DE9F047089E0D4604460F46002B4AD17F
:101244008A42944665D9B2FA82F343B102FA03FCA6
:10125400C3F120029F4020FA02F217439C404FEA58
:101264001C4E1FFA8CF5B7FBFEF1220C0EFB117716
:1012740042EA074201FB05F090420AD91CEB020244
:1012840001F1FF3780F01C81904240F2198102394C
:101294006244121AA4B2B2FBFEF00EFB102244EA1E
:1012A400024400FB05F5A5420AD91CEB040400F135
:1012B400FF3280F00781A54240F204816444023881
:1012C40040EA0140641B00211EB1DC400023C6E952
:1012D4000043BDE8F0878B4208D9002E00F0ED8072
:1012E4000021C6E900050846BDE8F087B3FA83F19A
:1012F400002949D1AB4202D3824200F2F880841A19
:1013040065EB030201201746002EE2D0C6E9004730
:10131400DFE702B9FFDEB2FA82F3002B40F09080DF
:101324008A1A4FEA1C471FFA8CFE0121B2FBF7F51B
:1013340007FB1520220C42EA00420EFB05F0904206
:1013440008D91CEB020205F1FF3802D2904200F2E8
:10135400CB804546121AA4B2B2FBF7F007FB102269
:1013640044EA02440EFB00FEA64508D91CEB040423
:1013740000F1FF3202D2A64500F2BB801046A4EB76
:101384000E0440EA05409FE7C1F120078B4022FA92
:1013940007FC4CEA030C05FA01F420FA07F3FD40BC
:1013A4004FEA1C492343B5FBF9F81FFA8CFE09FBED
:1013B40018551C0C44EA054408FB0EF5A54202FA34
:1013C40001F200FA01F00BD91CEB040408F1FF3A16
:1013D40080F08880A54240F28580A8F10208644428
:1013E400641B9DB2B4FBF9F309FB134445EA0444BE
:1013F40003FB0EFEA64508D91CEB040403F1FF35DC
:101404006CD2A6456AD9023B644443EA0843A3FB71
:101414000295A4EB0E04AC42C846AE4656D353D054
:1014240056B1B0EB080264EB0E0404FA07F7CA40A5
:10143400CC401743C6E9007418460021BDE8F08784
:10144400C3F1200102FA03FC20FA01F225FA01F1AA
:101454009D402A434FEA1C471FFA8CFEB1FBF7F06C
:1014640007FB1015110C41EA054100FB0EF58D42F6
:1014740004FA03F408D91CEB010100F1FF382FD260
:101484008D422DD902386144491B92B2B1FBF7F564
:1014940007FB151142EA014205FB0EF1914208D9FE
:1014A4001CEB020205F1FF3816D2914214D9023D19
:1014B4006244521A45EA004138E73146304608E7AB
:1014C4003946E6E61046FBE64845A9D2B9EB0208E0
:1014D40065EB0C0E013BA3E74546EAE72B4694E790
:1014E4004046D1E7D0467BE7023D624432E70846F6
:1014F4000AE76444023842E7704700BF80B58AB007
:1015040000AF0346FB71FB79002B0ED100233B6136
:101514001F4B1B6B1E4A43F0020313631C4B1B6BD4
:1015240003F002033B613B690DE00023FB60184BB1
:101534001B6B174A43F002031363154B1B6B03F039
:101544000203FB60FB68FB79124A32F813307B61BB
:101554000123BB610023FB6102233B62FB790E4A3A
:1015640052F8233007F114021146184600F0E8FC43
:10157400FB79094A52F82300FB79064A32F8133002
:101584000022194600F070FE00BF2837BD4680BD1A
:1015940000380240F03A0020203B002080B582B0A1
:1015A40000AF0346FB71FB79074A52F82300FB792D
:1015B400064A32F813300122194600F055FE00BFE6
:1015C4000837BD4680BD00BF203B0020F03A002014
:1015D40080B582B000AF0346FB71FB79074A52F82D
:1015E4002300FB79064A32F813300022194600F032
:1015F4003BFE00BF0837BD4680BD00BF203B002036
:10160400F03A002080B400AF164BD3F88830154A66
:1016140043F47003C2F88830134B1B68124A43F03A
:1016240001031360104B00229A600F4B1B680E4A93
:1016340023F0847323F4803313600B4B0B4A5A60FA
:10164400094B1B68084A23F480231360064B0022CD
:10165400DA60044B064A9A6000BFBD465DF8047B1D
:10166400704700BF00ED00E0003802401030002455
:101674000010002080B500AF0B4B1B680A4A43F4EE
:1016840000731360084B1B68074A43F480731360AC
:10169400032000F039F90F2000F010F800F006F8EC
:1016A4000023184680BD00BF003C024080B400AF58
:1016B40000BFBD465DF8047B7047000080B582B072
:1016C40000AF7860124B1A68124B1B7819464FF41E
:1016D4007A73B3FBF1F3B2FBF3F3184600F03BF972
:1016E4000346002B01D001230EE07B680F2B0AD8A0
:1016F400002279684FF0FF3000F011F9064A7B6848
:101704001360002300E0012318460837BD4680BD5E
:101714002C3B0020343B0020303B002080B400AF41
:10172400064B1B781A46064B1B681344044A136085
:1017340000BFBD465DF8047B704700BF343B00200A
:10174400543B002080B400AF034B1B681846BD46D1
:101754005DF8047B704700BF543B002080B584B023
:1017640000AF7860FFF7EEFFB8607B68FB60FB6852
:10177400B3F1FF3F05D00A4B1B781A46FB681344AC
:10178400FB6000BFFFF7DEFF0246BB68D31AFA68AE
:101794009A42F7D800BF00BF1037BD4680BD00BFD6
:1017A400343B002080B485B000AF78607B6803F0E0
:1017B4000703FB600C4BDB68BB60BA684FF6FF03A2
:1017C4001340BB60FB681A02BB68134343F0BF635A
:1017D40043F40033BB60044ABB68D36000BF1437D2
:1017E400BD465DF8047B704700ED00E080B400AFB7
:1017F400044BDB681B0A03F007031846BD465DF87B
:10180400047B704700ED00E080B483B000AF034672
:101814003960FB7197F90730002B0ADB3B68DAB2B9
:101824000C4997F907301201D2B20B4483F8002314
:101834000AE03B68DAB20849FB7903F00F03043B82
:101844001201D2B20B441A7600BF0C37BD465DF8C4
:10185400047B704700E100E000ED00E080B489B053
:1018640000AFF860B9607A60FB6803F00703FB61BE
:10187400FB69C3F10703042B28BF0423BB61FB6985
:101884000433062B02D9FB69033B00E000237B6190
:101894004FF0FF32BB6902FA03F3DA43BB681A4024
:1018A4007B699A404FF0FF317B6901FA03F3D94316
:1018B4007B680B40134318462437BD465DF8047B10
:1018C4007047000080B582B000AF78607B68013B50
:1018D400B3F1807F01D301230FE00A4A7B68013B07
:1018E40053600F214FF0FF30FFF78EFF054B0022AE
:1018F4009A60044B07221A60002318460837BD4635
:1019040080BD00BF10E000E080B582B000AF786019
:101914007868FFF747FF00BF0837BD4680BD80B534
:1019240086B000AF0346B9607A60FB7300237B6125
:10193400FFF75CFF78617A68B9687869FFF78EFF12
:10194400024697F90F3011461846FFF75DFF00BFB6
:101954001837BD4680BD80B582B000AF7860786826
:10196400FFF7B0FF034618460837BD4680BD0000A8
:1019740080B586B000AFF860B960C7E900230123E1
:10198400FB75234B1B7E012B01D102233BE0204B33
:1019940001221A764CF2503000F070F80346FB75C1
:1019A400FB7D002B2BD1FB68002B05D13B7819461E
:1019B400B86800F01BF916E0FB68012B05D13B88E1
:1019C4001946B86800F0EEF80DE0FB68022B05D16B
:1019D4003B681946B86800F0C3F804E0D7E900236F
:1019E400B86800F08BF84CF2503000F047F803462A
:1019F400FB75084B1B69074A23F001031361044B71
:101A040000221A76FB7D18461837BD4680BD00BFFC
:101A1400583B0020003C024080B483B000AF002358
:101A2400FB710B4B1B69002B0BDA094B094A5A60FB
:101A3400074B094A5A60064B1B69002B01DA012344
:101A4400FB71FB7918460C37BD465DF8047B704783
:101A5400003C024023016745AB89EFCD80B400AF61
:101A6400054B1B69044A43F00043136100231846E5
:101A7400BD465DF8047B7047003C024080B584B0ED
:101A840000AF78600023FB601A4B0022DA61FFF795
:101A940059FEF86010E07B68B3F1FF3F0CD07B681F
:101AA400002B07D0FFF74EFE0246FB68D31A7A6874
:101AB4009A4201D2032319E00F4BDB6803F480330D
:101AC400002BE8D10C4BDB6803F00103002B02D0A0
:101AD400094B0122DA60084BDB6803F4F973002B2D
:101AE40003D000F0A5F8012300E0002318461037C6
:101AF400BD4680BD583B0020003C024080B485B008
:101B040000AFF860C7E90023144B1B69134A23F4A0
:101B140040731361114B1B69104A43F44073136102
:101B24000E4B1B690D4A43F001031361FB683A68CD
:101B34001A60BFF36F8F00BFD7E900014FF00002B6
:101B44004FF000030A000023F968043113460B60C8
:101B540000BF1437BD465DF8047B7047003C02406B
:101B640080B483B000AF786039600D4B1B690C4AB8
:101B740023F4407313610A4B1B69094A43F400734D
:101B84001361074B1B69064A43F0010313617B6829
:101B94003A681A6000BF0C37BD465DF8047B704795
:101BA400003C024080B483B000AF78600B467B8079
:101BB4000D4B1B690C4A23F4407313610A4B1B69D8
:101BC400094A43F480731361074B1B69064A43F0C7
:101BD400010313617B687A881A8000BF0C37BD4605
:101BE4005DF8047B704700BF003C024080B483B0C2
:101BF40000AF78600B46FB700C4B1B690B4A23F457
:101C040040731361094B094A1B691361074B1B6934
:101C1400064A43F0010313617B68FA781A7000BF27
:101C24000C37BD465DF8047B704700BF003C0240A2
:101C340080B400AF2F4BDB6803F01003002B08D0F7
:101C44002D4BDB6943F010032B4AD361294B10223F
:101C5400DA60284BDB6803F02003002B08D0264B06
:101C6400DB6943F00803244AD361224B2022DA6063
:101C7400204BDB6803F04003002B08D01E4BDB69CC
:101C840043F004031C4AD3611A4B4022DA60194B17
:101C9400DB6803F08003002B08D0174BDB6943F0AB
:101CA4000203154AD361134B8022DA60114BDB68BF
:101CB40003F48073002B09D00F4BDB6943F001035D
:101CC4000D4AD3610B4B4FF48072DA60094BDB6829
:101CD40003F00203002B08D0074BDB6943F0200319
:101CE400054AD361034B0222DA6000BFBD465DF8AA
:101CF400047B7047003C0240583B002080B584B010
:101D040000AF786039600123FB730023BB60314B63
:101D14001B7E012B01D1022358E02E4B01221A769F
:101D24004CF25030FFF7AAFE0346FB73FB7B002BFB
:101D340048D13B684FF0FF321A607B681B68012B67
:101D440015D17B681B69DAB27B685B68194610465B
:101D540000F044F84CF25030FFF790FE0346FB735A
:101D64001D4B1B691C4A23F00403136128E07B68A4
:101D74009B68BB601CE07B681B69DBB21946B868D2
:101D840000F050F84CF25030FFF778FE0346FB7336
:101D9400114B1B69104A23F0FA031361FB7B002BE0
:101DA40003D03B68BA681A600AE0BB680133BB60C1
:101DB4007B68DA687B689B681344BA689A42DAD312
:101DC40000F078F8034B00221A76FB7B1846103794
:101DD400BD4680BD583B0020003C024080B483B027
:101DE40000AF03463960FB710D4B1B690C4A23F4A9
:101DF400407313610A4B1B69094A43F004031361DE
:101E0400074B1A69FB791B021343054A43F48033D9
:101E1400136100BF0C37BD465DF8047B704700BFFB
:101E2400003C024080B485B000AF78600B46FB7084
:101E34000023FB60FB78002B02D10023FB6010E041
:101E4400FB78012B03D14FF48073FB6009E0FB782E
:101E5400022B03D14FF40073FB6002E04FF4407394
:101E6400FB60134B1B69124A23F440731361104B3C
:101E74001A690F49FB6813430B610D4B1B690C4A2C
:101E840023F0F80313610A4B1A697B68DB001343E0
:101E9400074A43F002031361054B1B69044A43F4E8
:101EA4008033136100BF1437BD465DF8047B70476F
:101EB400003C024080B400AF204B1B6803F4007365
:101EC400002B17D01D4B1B681C4A23F400731360AE
:101ED4001A4B1B68194A43F400631360174B1B68C1
:101EE400164A23F400631360144B1B68134A43F42B
:101EF40000731360114B1B6803F48063002B17D02D
:101F04000E4B1B680D4A23F4806313600B4B1B6854
:101F14000A4A43F480531360084B1B68074A23F4AE
:101F240080531360054B1B68044A43F480631360B9
:101F340000BFBD465DF8047B704700BF003C024013
:101F440080B489B000AF7860396000237B610023DE
:101F54003B610023BB610023FB6165E10122FB6956
:101F640002FA03F37B613B681B687A6913403B61A7
:101F74003A697B699A4240F054813B685B6803F09C
:101F84000303012B05D03B685B6803F00303022BBA
:101F940030D17B689B68BB61FB695B00032202FA5A
:101FA40003F3DB43BA691340BB613B68DA68FB693E
:101FB4005B0002FA03F3BA691343BB617B68BA6935
:101FC4009A607B685B68BB610122FB6902FA03F3D8
:101FD400DB43BA691340BB613B685B681B0903F0D0
:101FE4000102FB6902FA03F3BA691343BB617B681C
:101FF400BA695A603B685B6803F00303032B17D08C
:102004007B68DB68BB61FB695B00032202FA03F3B4
:10201400DB43BA691340BB613B689A68FB695B00A8
:1020240002FA03F3BA691343BB617B68BA69DA60E5
:102034003B685B6803F00303022B23D1FB69DA08D6
:102044007B68083253F82230BB61FB6903F0070355
:102054009B000F2202FA03F3DB43BA691340BB610E
:102064003B681A69FB6903F007039B0002FA03F358
:10207400BA691343BB61FB69DA087B680832B96942
:1020840043F822107B681B68BB61FB695B00032279
:1020940002FA03F3DB43BA691340BB613B685B6834
:1020A40003F00302FB695B0002FA03F3BA6913430A
:1020B400BB617B68BA691A603B685B6803F44033B0
:1020C400002B00F0AE800023FB605D4B5B6C5C4A30
:1020D40043F4804353645A4B5B6C03F48043FB60CA
:1020E400FB68584AFB699B08023352F82330BB61F2
:1020F400FB6903F003039B000F2202FA03F3DB43A3
:10210400BA691340BB617B684F4A934225D07B6810
:102114004E4A93421FD07B684D4A934219D07B6844
:102124004C4A934213D07B684B4A93420DD07B6850
:102134004A4A934207D07B68494A934201D1062315
:102144000CE007230AE0052308E0042306E0032348
:1021540004E0022302E0012300E00023FA6902F014
:10216400030292009340BA691343BB613549FB698A
:102174009B080233BA6941F823203A4B9B68BB6140
:102184003B69DB43BA691340BB613B685B6803F49A
:102194008013002B03D0BA693B691343BB61314AF6
:1021A400BB6993602F4BDB68BB613B69DB43BA6956
:1021B4001340BB613B685B6803F40013002B03D03E
:1021C400BA693B691343BB61264ABB69D360254B9B
:1021D4005B68BB613B69DB43BA691340BB613B6825
:1021E4005B6803F40033002B03D0BA693B691343E3
:1021F400BB611C4ABB6953601A4B1B68BB613B69DA
:10220400DB43BA691340BB613B685B6803F480330A
:10221400002B03D0BA693B691343BB61114ABB6904
:102224001360FB690133FB61FB690F2B7FF696AEEC
:1022340000BF00BF2437BD465DF8047B704700BF74
:10224400003802400038014000000240000402400F
:1022540000080240000C024000100240001402403A
:1022640000180240003C014080B483B000AF7860A5
:102274000B467B8013467B707B78002B03D07A88D7
:102284007B689A6103E07B881A047B689A6100BFCB
:102294000C37BD465DF8047B7047000080B582B002
:1022A40000AF00237B6000233B60204B1B6C1F4A64
:1022B40043F0805313641D4B1B6C03F080533B604D
:1022C4003B681B4B01221A60FFF73CFA786009E077
:1022D400FFF738FA02467B68D31AB3F57A7F01D93F
:1022E40003231FE0134B5B6803F48033B3F5803F93
:1022F400EED1114B01221A60FFF724FA786009E04D
:10230400FFF720FA02467B68D31AB3F57A7F01D926
:10231400032307E0074B5B6803F40033B3F5003F86
:10232400EED1002318460837BD4680BD0038024070
:1023340040000E420070004044000E4280B586B05A
:1023440000AF78607B68002B01D101236FE27B68CA
:102354001B6803F00103002B75D0884B9B6803F0C6
:102364000C03042B0CD0854B9B6803F00C03082B47
:1023740012D1824B5B6803F48003B3F5800F0BD159
:102384007E4B1B6803F40033002B5BD07B685B68D7
:10239400002B57D101234AE27B685B68B3F5803F89
:1023A40006D1764B1B68754A43F4803313601DE0F5
:1023B4007B685B68B3F5A02F0CD1704B1B686F4A28
:1023C40043F4802313606D4B1B686C4A43F48033E1
:1023D40013600BE0694B1B68684A23F48033136075
:1023E400664B1B68654A23F4802313607B685B6833
:1023F400002B13D0FFF7A6F9386108E0FFF7A2F924
:1024040002463B69D31A642B01D903230FE25B4BC9
:102414001B6803F40033002BF0D014E0FFF792F9AB
:10242400386108E0FFF78EF902463B69D31A642B42
:1024340001D90323FBE1514B1B6803F40033002B48
:10244400F0D100E000BF7B681B6803F00203002B9F
:1024540063D04A4B9B6803F00C03002B0BD0474B13
:102464009B6803F00C03082B1CD1444B5B6803F4FA
:102474008003002B16D1414B1B6803F00203002B91
:1024840005D07B68DB68012B01D00123CFE13B4BF6
:102494001B6823F0F8027B681B69DB003749134390
:1024A4000B603AE07B68DB68002B20D0344B0122C0
:1024B4001A60FFF747F9386108E0FFF743F902466D
:1024C4003B69D31A022B01D90323B0E12B4B1B68C0
:1024D40003F00203002BF0D0284B1B6823F0F80212
:1024E4007B681B69DB00254913430B6015E0244B13
:1024F40000221A60FFF726F9386108E0FFF722F995
:1025040002463B69D31A022B01D903238FE11B4BEB
:102514001B6803F00203002BF0D17B681B6803F0F7
:102524000803002B36D07B685B69002B16D0154B53
:1025340001221A60FFF706F9386108E0FFF702F993
:1025440002463B69D31A022B01D903236FE10B4BDB
:102554005B6F03F00203002BF0D01BE0094B002259
:102564001A60FFF7EFF838610EE0FFF7EBF8024668
:102574003B69D31A022B07D9032358E100380240E0
:1025840000004742800E4742884B5B6F03F0020312
:10259400002BEAD17B681B6803F00403002B00F0D6
:1025A40097800023FB75814B1B6C03F08053002B39
:1025B4000FD10023BB607D4B1B6C7C4A43F08053DE
:1025C40013647A4B1B6C03F08053BB60BB6801231C
:1025D400FB75774B1B6803F48073002B18D1744B85
:1025E4001B68734A43F480731360FFF7ABF83861D8
:1025F40008E0FFF7A7F802463B69D31A022B01D97A
:10260400032314E16A4B1B6803F48073002BF0D09E
:102614007B689B68012B06D1644B1B6F634A43F0B4
:10262400010313671CE07B689B68052B0CD15F4B8F
:102634001B6F5E4A43F0040313675C4B1B6F5B4ADA
:1026440043F0010313670BE0584B1B6F574A23F009
:1026540001031367554B1B6F544A23F0040313679C
:102664007B689B68002B15D0FFF76CF838610AE093
:10267400FFF768F802463B69D31A41F28832934265
:1026840001D90323D3E0494B1B6F03F00203002B52
:10269400EED014E0FFF756F838610AE0FFF752F87D
:1026A40002463B69D31A41F28832934201D903238B
:1026B400BDE03E4B1B6F03F00203002BEED1FB7D0C
:1026C400012B05D1394B1B6C384A23F0805313641A
:1026D4007B689B69002B00F0A980344B9B6803F056
:1026E4000C03082B5CD07B689B69022B41D1314BD6
:1026F40000221A60FFF726F8386108E0FFF722F895
:1027040002463B69D31A022B01D903238FE0274BDE
:102714001B6803F00073002BF0D17B68DA697B68D7
:102724001B6A1A437B685B6A9B011A437B689B6A3A
:102734005B08013B1B041A437B68DB6A1B061B49CD
:1027440013434B601B4B01221A60FEF7FBFF3861F9
:1027540008E0FEF7F7FF02463B69D31A022B01D9C2
:10276400032364E0114B1B6803F00073002BF0D0CB
:102774005CE0104B00221A60FEF7E4FF386108E0C9
:10278400FEF7E0FF02463B69D31A022B01D903236B
:102794004DE0064B1B6803F00073002BF0D145E0BD
:1027A4007B689B69012B07D1012340E0003802407C
:1027B40000700040600047421F4B5B68FB607B6811
:1027C4009B69012B30D0FB6803F480027B68DB69D2
:1027D4009A4229D1FB6803F03F027B681B6A9A4244
:1027E40022D1FA6847F6C07313407A68526A92019C
:1027F400934219D1FB6803F440327B689B6A5B08FF
:10280400013B1B049A420FD1FB6803F070627B68A2
:10281400DB6A1B069A4207D1FB6803F0E0427B683F
:102824001B6B1B079A4201D0012300E000231846CA
:102834001837BD4680BD00BF0038024080B584B063
:1028440000AF786039607B68002B01D10123CCE0B4
:10285400684B1B6803F00F033A689A420CD9654B26
:102864003A68D2B21A70634B1B6803F00F033A68DC
:102874009A4201D00123B8E07B681B6803F002038D
:10288400002B20D07B681B6803F00403002B05D0C9
:10289400594B9B68584A43F4E05393607B681B6828
:1028A40003F00803002B05D0534B9B68524A43F4B2
:1028B40060439360504B9B6823F0F0027B689B68F5
:1028C4004D4913438B607B681B6803F00103002BA5
:1028D40044D07B685B68012B07D1474B1B6803F42A
:1028E4000033002B19D101237FE07B685B68022B46
:1028F40003D07B685B68032B07D13F4B1B6803F055
:102904000073002B09D101236FE03B4B1B6803F0DC
:102914000203002B01D1012367E0374B9B6823F0AE
:1029240003027B685B68344913438B60FEF70AFF3C
:10293400F8600AE0FEF706FF0246FB68D31A41F28C
:102944008832934201D903234FE02B4B9B6803F059
:102954000C027B685B689B009A42EBD1254B1B6899
:1029640003F00F033A689A420CD2224B3A68D2B26F
:102974001A70204B1B6803F00F033A689A4201D087
:10298400012332E07B681B6803F00403002B08D0AA
:10299400194B9B6823F4E0527B68DB6816491343A8
:1029A4008B607B681B6803F00803002B09D0124B73
:1029B4009B6823F460427B681B69DB000E49134368
:1029C4008B6000F021F802460B4B9B681B0903F057
:1029D4000F030A49CB5C22FA03F3094A1360094B3B
:1029E4001B681846FEF76AFE002318461037BD46DA
:1029F40080BD00BF003C024000380240F83A00208D
:102A04002C3B0020303B00202DE9B04F94B000AFA8
:102A140000237B640023FB6400233B640023BB642A
:102A2400794B9B6803F00C03082B0DD0082B00F2A4
:102A3400E180002B02D0042B03D0DBE0734BBB649A
:102A4400DBE0734BBB64D8E06F4B5B6803F03F0380
:102A54007B646D4B5B6803F48003002B63D06A4B8B
:102A64005B689B090022BB63FA63BB6BC3F3080377
:102A74003B6300237B63D7E90C4522462B464FF08A
:102A840000004FF00001590141EAD26150010246B1
:102A94000B462146511A3961294663EB01037B61D8
:102AA4004FF000024FF00003D7E904AB59468B0105
:102AB400514643EA916351468A015146B2EB0108FB
:102AC400594663EB01094FF000024FF000034FEA4F
:102AD400C90343EA58734FEAC8029046994623460D
:102AE40018EB0303BB602B4649EB0303FB604FF079
:102AF40000024FF00003D7E9024529464B02214664
:102B040043EAD15321464A02104619467B6C0022FF
:102B1400BB62FA62D7E90A23FEF772FB02460B4650
:102B24001346FB6458E0384B5B689B090022184647
:102B34001146C0F308033B6200237B62D7E908898E
:102B440042464B464FF000004FF00001590141EA64
:102B5400D261500102460B464146B2EB010A494696
:102B640063EB010B4FF000024FF000034FEA8B13AD
:102B740043EA9A634FEA8A12B2EB0A0463EB0B0549
:102B84004FF000024FF00003EB0043EA5473E200FD
:102B940014461D464346E3183B604B4645EB03038E
:102BA4007B604FF000024FF00003D7E9004529464F
:102BB4008B02214643EA915321468A021046194664
:102BC4007B6C0022BB61FA61D7E90623FEF718FB90
:102BD40002460B461346FB640B4B5B681B0C03F06D
:102BE400030301335B003B64FA6C3B6CB2FBF3F30D
:102BF400BB6402E0054BBB6400BFBB6C1846503796
:102C0400BD46BDE8B08F00BF003802400024F40088
:102C140000127A0080B400AF034B1B681846BD460F
:102C24005DF8047B704700BF2C3B002080B500AFEB
:102C3400FFF7F0FF0246054B9B689B0A03F007036E
:102C44000349CB5C22FA03F3184680BD00380240E6
:102C5400083B002080B500AFFFF7DCFF0246054BC0
:102C64009B685B0B03F007030349CB5C22FA03F375
:102C7400184680BD00380240083B002080B582B071
:102C840000AF78607B68002B01D1012342E07B68B0
:102C940093F84130DBB2002B06D17B68002283F825
:102CA4004020786800F050FE7B68242283F841209D
:102CB4007B681B68DA687B681B6822F40052DA6060
:102CC400786800F02BF87B681B681A697B681B68BE
:102CD40022F490421A617B681B685A697B681B68FE
:102CE40022F02A025A617B681B68DA687B681B68D9
:102CF40042F40052DA607B6800225A647B68202226
:102D040083F841207B68202283F842207B680022DC
:102D14005A63002318460837BD4680BD2DE9B04FDD
:102D2400C0B000AFC7F8F400D7F8F4301B681B69D3
:102D340023F44050D7F8F430D968D7F8F4301A683F
:102D440040EA01031361D7F8F4309A68D7F8F430F5
:102D54001B691A43D7F8F4305B691A43D7F8F43087
:102D6400DB691343C7F8F830D7F8F4301B68DB6825
:102D740023F4164121F00C01D7F8F4301A68D7F87F
:102D8400F8300B43D360D7F8F4301B685B6923F445
:102D94004070D7F8F4309969D7F8F4301A6840EAEB
:102DA40001035361D7F8F4301A688F4B9A4205D067
:102DB400D7F8F4301A688D4B9A4204D1FFF74AFFD2
:102DC400C7F8FC0003E0FFF731FFC7F8FC00D7F8B1
:102DD400F430DB69B3F5004F40F00C81D7F8FC30D8
:102DE4000022C7F8E830C7F8EC20D7E93A45224674
:102DF4002B469118B9655B41FB65D7E9162321463B
:102E040012EB0108294643EB01094FF000024FF091
:102E140000034FEAC90343EA58734FEAC8029046D5
:102E24009946234618EB0303C7F8E0302B4649EBD9
:102E34000303C7F8E430D7F8F4305B680022C7F81E
:102E4400D830C7F8DC20D7E936120B46DB183B65CF
:102E5400134642EB03037B65D7E91423D7E9380112
:102E6400FEF7CEF902460B46614BA3FB02235B0936
:102E74001C01D7F8FC300022C7F8D030C7F8D420A2
:102E8400D7E9348942464B469118B9645B41FB64E7
:102E9400D7E91223414612EB010A494643EB010BE1
:102EA4004FF000024FF000034FEACB0343EA5A739A
:102EB4004FEACA0292469B4643461AEB0303C7F8FD
:102EC400C8304B464BEB0303C7F8CC30D7F8F4308B
:102ED4005B680022C7F8C030C7F8C420D7E93012B5
:102EE4000B46DB183B64134642EB03037B64D7E9D0
:102EF4001023D7E93201FEF783F902460B46114647
:102F04003B4BA3FB01235B09642202FB03F3CB1AB3
:102F1400DB0003F13202364BA3FB02235B095B00A7
:102F240003F4F8731C44D7F8FC300022C7F8B83017
:102F3400C7F8BC20D7E92E8942464B469118B9639D
:102F44005B41FB63D7E90E23414651183963494677
:102F54004B417B634FF000024FF00003D7E90CAB09
:102F64005946CB00514643EA51735146CA001046B4
:102F74001946034642469B18C7F8B0304B460A46EA
:102F840042EB0303C7F8B430D7F8F4305B6800228F
:102F9400C7F8A830C7F8AC20D7E92A120B46DB18CB
:102FA400BB62134642EB0303FB62D7E90A23D7E96A
:102FB4002C01FEF725F902460B460D4BA3FB021329
:102FC4005B09642101FB03F3D31ADB003233084AA3
:102FD400A2FB03235B0903F00702D7F8F4301B6854
:102FE40022449A6006E100BF001001400014014031
:102FF4001F85EB51D7F8FC300022C7F8A030C7F882
:10300400A420D7E9288942464B46911839625B418E
:103014007B62D7E9082341465418494643EB01052E
:103024004FF000024FF00003EB0043EA5473E20058
:1030340014461D464346E318C7F898304B4645EB03
:103044000303C7F89C30D7F8F4305B680022C7F854
:103054009030C7F894204FF000024FF00003D7E9F6
:10306400244529468B00214643EA917321468A0070
:10307400D7E92601FEF7C4F802460B46604BA3FBD2
:1030840002235B091C01D7F8FC300022C7F8883002
:10309400C7F88C20D7E9228942464B469118B9617A
:1030A4005B41FB61D7E90623414651183961494622
:1030B4004B417B614FF000024FF00003D7E904ABB2
:1030C4005946CB00514643EA51735146CA00104653
:1030D4001946034642469B18C7F880304B460A46B9
:1030E40042EB0303C7F88430D7F8F4305B6800225E
:1030F400BB67FA674FF000024FF00003D7E91E895F
:1031040049468B00414643EA917341468A00D7E918
:103114002001FEF775F802460B461146384BA3FB17
:1031240001235B09642202FB03F3CB1A1B01323334
:10313400334AA2FB03235B0903F0F0031C44D7F8D2
:10314400FC3000223B677A67D7E91C8942464B462C
:103154009118B9605B41FB60D7E9022341465118DD
:10316400396049464B417B604FF000024FF0000349
:10317400D7E900AB5946CB00514643EA5173514657
:10318400CA0010461946034642469B18BB664B4686
:103194000A4642EB0303FB66D7F8F4305B6800226F
:1031A4003B667A664FF000024FF00003D7E91889B6
:1031B40049468B00414643EA917341468A00D7E968
:1031C4001A01FEF71DF802460B460D4BA3FB021332
:1031D4005B09642101FB03F3D31A1B013233084A50
:1031E400A2FB03235B0903F00F02D7F8F4301B683A
:1031F40022449A6000BF07F58077BD46BDE8B08FD2
:103204001F85EB51DFF834D00D480E490E4A0023D8
:1032140002E0D458C4500433C4188C42F9D30B4A86
:103224000B4C002301E013600432A242FBD3FEF7EF
:10323400E9F900F011FC00F051FA70470000022097
:10324400203B0020383B0020203B0020383B00205E
:10325400703C0020FEE780B483B000AF78607B68E8
:1032640000221A707B6800225A707B68002283F85F
:10327400CA2000BF0C37BD465DF8047B704780B49C
:1032840083B000AF78607B681B78C72B05D97B6857
:103294001B783833DAB27B681A707B685B78C72B8B
:1032A40005D97B685B783833DAB27B685A707B68FF
:1032B40093F8CA30C82B03D97B68C82283F8CA2084
:1032C40000BF0C37BD465DF8047B704780B582B003
:1032D40000AF78600B46FB707B685B781A467B68AE
:1032E4001344FA789A707B685B780133DAB27B68AE
:1032F4005A707B6893F8CA300133DAB27B6883F87A
:10330400CA207B6893F8CA30C82B05D17B681B7828
:103314000133DAB27B681A707868FFF7B0FF00BF38
:103324000837BD4680BD000080B485B000AF78602A
:103334000B46FB70FB787A68127813440A4A82FBC6
:1033440003129111DA178A1AC82101FB02F29A1AA0
:103354001346FB73FB7B7A6813449B781846143737
:10336400BD465DF8047B70471F85EB5190B585B071
:1033740000AF786039600023FB7364E0FB7B19467F
:103384007868FFF7D1FF03463A2B59D1FB7B013311
:10339400DBB219467868FFF7C7FF0346FB72FB7A76
:1033A4001A1D7B6893F8CA301946FB7BCB1A9A42E4
:1033B40046DA0023BB7301237B730FE0FA7B7B7B2C
:1033C4001344DBB219467868FFF7AEFF03461A468A
:1033D400BB7B1344BB737B7B01337B73FB7A1A1D6A
:1033E4007B7B9A42EADABB7B5B42BB73FA7BFB7A58
:1033F4001344DBB20533DBB219467868FFF794FF58
:1034040003461A46BB7B934219D101233B730FE059
:10341400FA7B3B7B1344D9B23B7B013B3A68D4181B
:103424007868FFF781FF034623703B7B01333B73CE
:10343400FB7A5A1D3B7B9A42EADA01230BE000BF78
:10344400FB7B0133FB73FA7B7B6893F8CA30053B43
:103454009A4293DB002318461437BD4690BD000002
:1034640080B594B000AFFEF705F907F11C033422D0
:103474000021184600F0E8FA07F1080300221A6058
:103484005A609A60DA601A6100237B603B4B1B6CC4
:103494003A4A43F080531364384B1B6C03F0805357
:1034A4007B607B6800233B60354B1B68344A43F4E4
:1034B40040431360324B1B6803F440433B603B685A
:1034C4000223FB610123BB621023FB6202237B63A3
:1034D4000023BB630823FB63B4233B6402237B64A4
:1034E4000223BB640223FB6407F11C031846FEF7A6
:1034F40025FF0346002B00D0FEE7FEF7CFFE034670
:10350400002B00D0FEE70F23BB600223FB600023E7
:103514003B614FF4A0537B614FF48053BB6107F1CF
:10352400080305211846FFF789F90346002B00D04C
:10353400FEE7144B144A1A60124B4FF461425A606E
:10354400104B00229A600F4B0022DA600D4B0022D0
:103554001A610C4B00229A610A4B0C225A61094BE6
:103564000022DA610748FFF789FB0346002B00D0ED
:10357400FEE700BF5037BD4680BD00BF00380240A3
:1035840000700040843B00200048004080B584B0B7
:1035940000AF7860786800F045F9B8600023FB73E9
:1035A40009E0FB7B1B4A52F82330BA689A422CD0BC
:1035B400FB7B0133FB73184B1B78FA7B9A42F0D3E5
:1035C400164B00221A60154B02221A61134ABB687B
:1035D4009360124B0122DA6011491048FEF78EFB0A
:1035E4000346002B03D00220FDF7D8FFFBE70A4B6C
:1035F4001B781946074ABB6842F82130064B1B78F2
:103604000133DAB2044B1A7000E000BF1037BD4634
:1036140080BD00BFE03B0020003C0020CC3B0020EC
:10362400803B0020B0B582B000AF2A4B1B78BB7141
:10363400284BDB787B717B79002B2ED1254B5B7873
:103644001A02254B1B681344224A927813443B60A8
:103654003868FFF79BFF0023FB7119E0FA793B6898
:10366400D118FB7904331B4AD35CDBB200221C461D
:10367400154622462B460020FEF77AF90346002B16
:1036840003D00220FDF78AFFFBE7FB790133FB71CE
:10369400FA79BB799A42E1D316E07B79012B01D107
:1036A400012312E07B79022B0ED07B79032B0BD004
:1036B4007B79042B08D1074B1B791A06054B5B79E0
:1036C4001B041344044A1360002318460837BD46FC
:1036D400B0BD00BF043C0020683C0020B0B5C2B0BF
:1036E40000AFFFF7BDFE0020FDF708FF0120FDF746
:1036F40005FF0220FDF702FFFEF78EF93F4800F0B8
:1037040091F803463E4A13603E4800F0F5F802463D
:103714003D4B1344184600F085F80246384B1B68AD
:10372400D31A0133394A1360394B00221A60384BDB
:1037340002221A61324B1B68354A9360334B1B6873
:10374400334AD360334B07F1D0041D460FCD0FC469
:1037540095E80F0007C4238007F1EE0300221A60E6
:103764005A609A60DA601A613B1D1846FFF773FDD0
:103774000023A7F80631284B1B681B6803F02003BD
:10378400202BF5D1244B1B685B68DAB23B1D114634
:103794001846FFF79BFD3B1D20491846FFF7E6FD41
:1037A4000346002BE4D01E4B1B6801331C4A1360F4
:1037B4003B1D1846FFF74FFDFFF734FF034687F81C
:1037C400053197F80531012B00D0D1E700BFFEF792
:1037D40045F94FF4FA70FDF7C1FF0020FDF7DEFE56
:1037E4000220FDF7DBFE4FF4FA70FDF7B7FF00206F
:1037F400FDF7EEFE0220FDF7EBFEEAE7008000088D
:10380400783B002000000608FFFF05087C3B0020F1
:10381400CC3B0020BC3A0020843B0020043C002028
:103824006C3C002080B485B000AF78600023FB605E
:103834007B682A4A934206D27B68B3F1006F02D3B5
:103844000023FB6043E07B68254A934206D27B68F1
:10385400224A934202D30123FB6038E07B68214A69
:10386400934206D27B681E4A934202D30223FB6032
:103874002DE07B681C4A934206D87B68194A934220
:1038840002D30323FB6022E07B68184A934206D8E4
:103894007B68154A934202D90423FB6017E07B68D6
:1038A400134A934206D87B68104A934202D90523EF
:1038B400FB600CE07B680F4A934206D87B680C4A95
:1038C400934202D90623FB6001E00723FB60FB68F7
:1038D40018461437BD465DF8047B70470040000865
:1038E4000080000800C00008FFFF0008FFFF010877
:1038F400FFFF0308FFFF050880B485B000AF7860C0
:103904000023FB607B68002B08D07B68012B05D06B
:103914007B68022B02D07B68032B03D14FF48043D6
:10392400FB6009E07B68042B03D14FF48033FB6018
:1039340002E04FF40033FB60FB6818461437BD46C1
:103944005DF8047B7047000080B58AB000AF7860F2
:1039540000233B61234B1B6B224A43F00803136390
:10396400204B1B6B03F008033B613B690023FB60A6
:103974001C4B1B6B1B4A43F008031363194B1B6B53
:1039840003F00803FB60FB680023BB60154B1B6C52
:10399400144A43F480231364124B1B6C03F48023F6
:1039A400BB60BB684FF480737B610223BB6101235E
:1039B400FB6103233B6207237B6207F1140319466F
:1039C4000948FEF7BDFA4FF400737B6107237B625D
:1039D40007F1140319460448FEF7B2FA00BF28376A
:1039E400BD4680BD00380240000C024080B400AFE8
:1039F40000BFBD465DF8047B704780B400AFFEE7AE
:103A040080B400AFFEE780B400AFFEE780B400AF3F
:103A1400FEE780B400AF00BFBD465DF8047B70478D
:103A240080B400AF00BFBD465DF8047B704780B42E
:103A340000AF00BFBD465DF8047B704780B500AFA2
:103A4400FDF76CFE00BF80BD02440346934200D1E3
:103A5400704703F8011BF9E770B50D4D0D4C641B5D
:103A6400A4100026A64209D10B4D0C4C00F018F806
:103A7400641BA4100026A64205D170BD55F8043B72
:103A840098470136EEE755F8043B98470136F2E7CC
:103A9400183B0020183B0020183B00201C3B002052
:103AA400F8B500BFF8BC08BC9E467047F8B500BF27
:083AB400F8BC08BC9E467047F7
:103ABC00526561647920746F2072656365697665FF
:103ACC0020464C41534820646174610D0A0000008B
:103ADC0000000000000000000000000000000000DA
:103AEC000000000001008000004000000000000009
:103AFC000000000001020304060708090000000092
:043B0C0001020304AB
:083B100024D7FF7F0100000033
:043B1800E91100208F
:043B1C00C5110020AF
:103B20000004024000040240000402400024F400AB
:083B300010000000010000007C
:04000005200032099C
:00000001FF
