:020000042000DA
:1010000000000220F9210020AD250020AF2500209E
:10101000B1250020B3250020B525002000000000E8
:10102000000000000000000000000000B7250020C4
:10103000B925002000000000BB250020BD250020B0
:101040004922002049220020492200204922002074
:101050004922002049220020492200204922002064
:101060004922002049220020492200204922002054
:101070004922002049220020492200204922002044
:101080004922002049220020492200204922002034
:101090004922002049220020492200204922002024
:1010A0004922002049220020492200204922002014
:1010B0004922002049220020492200204922002004
:1010C00049220020492200204922002049220020F4
:1010D00049220020492200204922002049220020E4
:1010E00049220020492200204922002049220020D4
:1010F00049220020492200204922002049220020C4
:1011000049220020492200204922002049220020B3
:101110004922002049220020492200206523002086
:101120004922002049220020492200204922002093
:101130004922002000000000000000004922002099
:101140004922002049220020492200204922002073
:101150004922002049220020492200204922002063
:101160004922002049220020492200204922002053
:1011700049220020492200204922002000000000CE
:1011800000000000492200200000000000000000D4
:101190004922002000000000000000004922002039
:1011A00000000000000000000000000049220020B4
:1011B0004922002049220020492200204922002003
:0411C00049220020A0
:1011C40010B5054C237833B9044B13B10448AFF37D
:1011D40000800123237010BD882600200000000039
:1011E4001826002008B5034B1BB103490348AFF38D
:1011F400008008BD000000008C2600201826002076
:1012040053B94AB9002908BF00281CBF4FF0FF3169
:101214004FF0FF3000F070B9ADF1080C6DE904CE69
:1012240000F006F8DDF804E0DDE9022304B07047BD
:101234002DE9F047089E0D4604460F46002B4AD17F
:101244008A42944665D9B2FA82F343B102FA03FCA6
:10125400C3F120029F4020FA02F217439C404FEA58
:101264001C4E1FFA8CF5B7FBFEF1220C0EFB117716
:1012740042EA074201FB05F090420AD91CEB020244
:1012840001F1FF3780F01C81904240F2198102394C
:101294006244121AA4B2B2FBFEF00EFB102244EA1E
:1012A400024400FB05F5A5420AD91CEB040400F135
:1012B400FF3280F00781A54240F204816444023881
:1012C40040EA0140641B00211EB1DC400023C6E952
:1012D4000043BDE8F0878B4208D9002E00F0ED8072
:1012E4000021C6E900050846BDE8F087B3FA83F19A
:1012F400002949D1AB4202D3824200F2F880841A19
:1013040065EB030201201746002EE2D0C6E9004730
:10131400DFE702B9FFDEB2FA82F3002B40F09080DF
:101324008A1A4FEA1C471FFA8CFE0121B2FBF7F51B
:1013340007FB1520220C42EA00420EFB05F0904206
:1013440008D91CEB020205F1FF3802D2904200F2E8
:10135400CB804546121AA4B2B2FBF7F007FB102269
:1013640044EA02440EFB00FEA64508D91CEB040423
:1013740000F1FF3202D2A64500F2BB801046A4EB76
:101384000E0440EA05409FE7C1F120078B4022FA92
:1013940007FC4CEA030C05FA01F420FA07F3FD40BC
:1013A4004FEA1C492343B5FBF9F81FFA8CFE09FBED
:1013B40018551C0C44EA054408FB0EF5A54202FA34
:1013C40001F200FA01F00BD91CEB040408F1FF3A16
:1013D40080F08880A54240F28580A8F10208644428
:1013E400641B9DB2B4FBF9F309FB134445EA0444BE
:1013F40003FB0EFEA64508D91CEB040403F1FF35DC
:101404006CD2A6456AD9023B644443EA0843A3FB71
:101414000295A4EB0E04AC42C846AE4656D353D054
:1014240056B1B0EB080264EB0E0404FA07F7CA40A5
:10143400CC401743C6E9007418460021BDE8F08784
:10144400C3F1200102FA03FC20FA01F225FA01F1AA
:101454009D402A434FEA1C471FFA8CFEB1FBF7F06C
:1014640007FB1015110C41EA054100FB0EF58D42F6
:1014740004FA03F408D91CEB010100F1FF382FD260
:101484008D422DD902386144491B92B2B1FBF7F564
:1014940007FB151142EA014205FB0EF1914208D9FE
:1014A4001CEB020205F1FF3816D2914214D9023D19
:1014B4006244521A45EA004138E73146304608E7AB
:1014C4003946E6E61046FBE64845A9D2B9EB0208E0
:1014D40065EB0C0E013BA3E74546EAE72B4694E790
:1014E4004046D1E7D0467BE7023D624432E70846F6
:1014F4000AE76444023842E7704700BFF0B5194B6D
:1015040089B0044608BB01901A6B42F002021A63C8
:101514001B6B03F002030193019B134B134D33F830
:10152400146055F82400039600270123CDE90437FD
:1015340003A90223069300F011F955F824003A4652
:10154400314600F0DFF909B0F0BD002202921A6BB7
:1015540042F002021A631B6B03F002030293029B24
:10156400DBE700BF00380240302600206026002060
:10157400044B33F81010044B012253F8200000F000
:10158400C1B900BF3026002060260020044B33F888
:101594001010044B002253F8200000F0B3B900BF30
:1015A40030260020602600200E49D1F8883043F40C
:1015B4007003C1F888300C4B1A68002042F0010215
:1015C4001A6098601A6822F0847222F480321A60D9
:1015D400064A5A601A6822F480221A60D860044BC2
:1015E4008B60704700ED00E00038024010300024AA
:1015F400001000207047000038B50E4B1A784FF4E5
:101604007A73B3FBF2F30C4A05461068B0FBF3F0AF
:1016140000F090F8044658B90F2D09D8024629461F
:101624004FF0FF3000F046F8044B20461D6038BDF3
:101634000120FCE7702600206C2600207426002080
:1016440008B5094B1A6842F400721A601A6842F429
:1016540080721A60032000F01BF80F20FFF7CCFF04
:10166400FFF7C8FF002008BD003C0240034A044BBA
:1016740011681B780B441360704700BFA426002038
:1016840070260020014B1868704700BFA426002074
:101694000749CA6822F4E0620302120403F4E06317
:1016A400120C134343F0BF6343F40033CB60704721
:1016B40000ED00E0164B30B5DC68C4F30224C4F13D
:1016C4000703251D042B28BF0423062D4FF0FF35E7
:1016D4008CBF033C002405FA03F321EA0303A5406D
:1016E40022EA0502A340002843EA0203ACBF00F14A
:1016F4006040084A4FEA0313B8BF00F00F00DBB2A2
:10170400AABF00F56140135480F8003330BD00BF18
:1017140000ED00E014ED00E0002807DB044A410975
:10172400012300F01F00834042F82130704700BFBE
:1017340000E100E00138B0F1807F0BD24FF0E023EC
:10174400054A5861F02182F823100020072298618D
:101754001A6170470120704700ED00E02DE9F74F52
:10176400DFF89C91644A00230D6801249C4004EA3C
:10177400050CAC4340F0AD804D6805F003044FEA1E
:1017840043080326671E06FA08F6012F6FEA0606C9
:1017940034D8876807EA060ECF6807FA08F747EADD
:1017A4000E078760476827EA0C0EC5F300179F40B1
:1017B40047EA0E074760C76807EA060E8F6807FA0C
:1017C40008F747EA0E07022CC76019D14FEAD30A7B
:1017D40000EB8A0A03F0070BDAF820704FEA8B0B50
:1017E4004FF00F0E0EFA0BFE27EA0E0E0F6907FAE2
:1017F4000BF747EA0E07CAF8207001E0032CDAD190
:10180400076804FA08F437403C4315F4403F046089
:101814005FD04FF0000ACDF804A0D9F84460374CEB
:1018240046F48046C9F84460D9F8446006F480461A
:101834000196019E23F0030606F1804606F59C36C8
:1018440003F0030ED6F808804FEA8E0E0F2707FA2E
:101854000EF7A04228EA070742D004F58064A042AC
:1018640040D004F58064A0423ED004F58064A042D8
:101874003CD004F58064A0423AD004F58064A042D0
:1018840038D004F58064A0420CBF0624072404FA6F
:101894000EF43C43B46094686FEA0C06EF0254BF44
:1018A40034404CEA04049460D468AF0254BF34401A
:1018B4004CEA0404D4605468AF0354BF34404CEA87
:1018C400040454601468ED0354BF34404CEA040427
:1018D40014600133102B7FF447AF03B0BDE8F08FE1
:1018E4005446D4E70124D2E70224D0E70324CEE708
:1018F4000424CCE70524CAE7003C01400000024070
:10190400003802400AB1816170470904FBE7000016
:1019140037B500230193184B184D1A6C42F08052CE
:101924001A641B6C03F080530193019B144B012236
:101934001A64FFF7A7FE04466B68DA030BD5104B55
:101944000E4D01225A64FFF79DFE04466B689B030B
:101954000AD5002006E0FFF795FE001BB0F57A7F5C
:10196400EAD9032003B030BDFFF78CFE001BB0F5AD
:101974007A7FEBD9F5E700BF0038024000700040E1
:1019840000000E422DE9F341044640B30368DD072D
:1019940010D4236898075BD423681A0700F19D804C
:1019A40023685B0700F1BD80A069002840F0248112
:1019B40000202CE08D4B9A6802F00C02042A07D018
:1019C4009A6802F00C02082A0BD15B68590208D508
:1019D400864B1B689A03DCD56368002BD9D10120A0
:1019E40015E06368814DB3F5803F13D12B6843F450
:1019F40080332B60FFF746FE7C4E054633689B031D
:101A0400C7D4FFF73FFE401B6428F7D9032002B078
:101A1400BDE8F081B3F5A02F04D12B6843F48023F3
:101A24002B60E3E72A6822F480322A602A6822F4D1
:101A340080222A60002BDDD1FFF724FE06462B68A6
:101A44009F03A6D5FFF71EFE801B6428F7D9DDE7A8
:101A5400664B9A6812F00C0F07D09A6802F00C02D9
:101A6400082A11D15B685E020ED4604A13689D0790
:101A740002D5E368012BB2D11368216923F0F8037E
:101A840043EAC103136087E7E268594BB2B101220C
:101A94001A60FFF7F7FD554D06462B68980707D5E2
:101AA4002B68226923F0F80343EAC2032B6073E72F
:101AB400FFF7E8FD801B0228EFD9A7E71A60FFF7BC
:101AC400E1FD4A4E0546336899077FF565AFFFF798
:101AD400D9FD401B0228F6D998E76269444B82B1CC
:101AE4000122C3F8802EFFF7CDFD404E0546736FEB
:101AF4009F073FF555AFFFF7C5FD401B0228F6D9F8
:101B040084E7C3F8802EFFF7BDFD384E0546736F9A
:101B140098077FF545AFFFF7B5FD401B0228F6D9BE
:101B240074E7324B1A6C12F0805228D101921A6C6D
:101B340042F080521A641B6C03F080530193019BA2
:101B440001272C4D2B68D9051BD5A368274D012BE4
:101B540027D12B6F43F001032B67FFF793FD234E2F
:101B6400054641F28838336F9B0739D5002F3FF47F
:101B74001BAF1E4A136C23F08053136414E7002731
:101B8400DFE72B6843F480732B60FFF77BFD064689
:101B94002B68DA05D9D4FFF775FD801B0228F7D925
:101BA40034E7052B04D12B6F43F004032B67D0E7F4
:101BB4002A6F22F001022A672A6F22F004022A67A0
:101BC400002BCAD1FFF75EFD41F2883806462B6F21
:101BD4009807CBD5FFF756FD801B4045F7D915E78D
:101BE400FFF750FD401B4045BDD90FE700380240C8
:101BF4000000474200700040394DAB6803F00C030D
:101C0400082B3DD0374B002202281A662BD1FFF750
:101C140039FD06462B6899011FD4D4E907321343D2
:101C2400626A43EA8213E26A43EA0263A26A5208DE
:101C3400013A43EA02436B602A4B294D01221A669A
:101C4400FFF720FD04462B689A013FF5B1AEFFF77C
:101C540019FD001B0228F6D9D8E6FFF713FD801BF7
:101C64000228D7D9D2E6FFF70DFD04462B689B0165
:101C74007FF59EAEFFF706FD001B0228F6D9C5E6E8
:101C840001283FF4C4AE6B68E26903F48001914219
:101C94007FF4A5AE216A03F03F028A427FF49FAE2F
:101CA400616A47F6C0721A40B2EB811F7FF497AEA7
:101CB400A26A520803F44031013AB1EB024F7FF4B7
:101CC4008EAEE16A03F07062B2EB016F7FF487AE0F
:101CD400226B03F0E043B3EB027F3FF469AE7EE690
:101CE4000038024000004742134908B58B6803F0EE
:101CF4000C03042B1CD0082B1CD14A684B68496880
:101D040013F4800314BF0D480D48C1F3881118BFA4
:101D1400002302F03F02A1FB0001FFF771FA064B1A
:101D24005B68C3F3014301335B00B0FBF3F008BD10
:101D34000248FCE70248FAE70038024000127A0041
:101D44000024F4002DE9F0410D46044610B90120A9
:101D5400BDE8F081434B1A6802F00F028A4228D38F
:101D640021688F072DD4C80740D43E4B1A6802F06F
:101D74000F02AA4265D8226851076BD4130707D50E
:101D8400394A2169936823F4604343EAC1039360A9
:101D9400FFF7AAFF344B354A9B68C3F30313D35CA4
:101DA400D840334B1860334B1868FFF725FC0020EC
:101DB400CEE7CAB21A701B6803F00F038B42C6D178
:101DC400CEE7294B11F0040F1EBF9A6842F4E0528B
:101DD4009A600E0742BF9A6842F460429A609A6819
:101DE400A06822F0F00202439A60BCE762681E4BCE
:101DF400012A1CD11B6813F4003FA8D01A4EB36803
:101E040023F003031343B360FFF73CFC41F288382B
:101E14000746B368626803F00C03B3EB820FA4D0E7
:101E2400FFF730FCC01B4045F3D9032090E7911E17
:101E340001291B6802D813F0007FDEE713F0020FBC
:101E4400DBE7EAB21A701B6803F00F03AB427FF4BE
:101E54007EAF90E70449E0688B6823F4E0530343C2
:101E64008B608BE7003C024000380240362600209D
:101E74006C26002074260020044B054A9B68C3F39B
:101E84008223D35C034A1068D8407047003802406C
:101E9400462600206C260020044B054A9B68C3F3A9
:101EA4004233D35C034A1068D8407047003802407C
:101EB400462600206C26002090F83D30012B30D1BE
:101EC400022380F83D300368DA6842F00102DA60E8
:101ED400154A93421AD0B3F1804F17D0A2F57C4231
:101EE400934213D002F5806293420FD002F58062D0
:101EF40093420BD002F57842934207D002F5705218
:101F0400934203D0A2F59432934204D19A6802F02A
:101F14000702062A03D01A6842F001021A60002060
:101F240070470120704700BF00000140334A036836
:101F3400904212D0B0F1804F0FD0A2F57C42904273
:101F44000BD002F58062904207D002F58062904285
:101F540003D002F57842904219D14A6823F0700305
:101F64001343264A904229D0B0F1804F26D0A2F5DF
:101F74007C42904222D002F5806290421ED002F54B
:101F8400806290421AD002F57842904216D01C4AE0
:101F9400904213D002F5806290420FD002F5806225
:101FA40090420BD0A2F59832904207D002F580629D
:101FB400904203D002F58062904203D1CA6823F4B0
:101FC400407313434A6923F08003134303608B680F
:101FD400C3620B688362094B984203D003F58063A4
:101FE400984201D10B690363012343610369DB0751
:101FF40042BF036923F001030361704700000140FD
:102004000040014010B5044630B390F83D3003F071
:10201400FF021BB980F83C2000F0A4FA02232068D8
:1020240084F83D30211DFFF781FF012384F84630F9
:10203400002084F83E3084F83F3084F8403084F83F
:10204400413084F8423084F8433084F8443084F8D2
:10205400453084F83D3010BD0120FCE730B590F8E0
:102064003C30012B4FF0020332D080F83D3003683E
:102074000D685C689A6824F070042C435C60154C0D
:10208400A3421AD0B3F1804F17D0A4F57C44A342E5
:1020940013D004F58064A3420FD004F58064A342F6
:1020A4000BD004F57844A34207D004F57054A3423E
:1020B40003D0A4F59434A34204D1496822F08002E9
:1020C4000A439A60012380F83D30002380F83C30B5
:1020D400184630BD000001400268C168136923F44A
:1020E40040530B4370B51361054683680069D1689A
:1020F400034368690343E86921F4164121F00C01A4
:1021040003430B43D3605369A96923F440730B431E
:1021140053611F4B9A4203D003F580639A4223D143
:10212400FFF7BAFEEB691921B3F5004FD5E9004674
:10213400A0FB01011BD1B2194FF000035B41FFF773
:102144005FF86422B0FBF2F102FB1103DB003233CF
:10215400B3FBF2F303F007025B0002EB011203F49A
:10216400F8731344A36070BDFFF786FEDAE7B2008C
:10217400B30FFFF745F86422B0FBF2F102FB110341
:102184001B013233B3FBF2F303EB0113EAE700BFA5
:102194000010014010B5044648B390F8413003F0F4
:1021A400FF021BB980F8402000F09CF92268242328
:1021B40084F84130D36823F40053D3602046FFF7FA
:1021C4008BFF23681A6922F490421A615A6922F03B
:1021D4002A025A61DA6842F40052DA6000202023AD
:1021E400606484F8413084F84230606310BD01209B
:1021F400FCE70000DFF834D00D480E490E4A0023F6
:1022040002E0D458C4500433C4188C42F9D30B4AA6
:102214000B4C002301E013600432A242FBD3FFF70E
:10222400C3F900F0D3F900F007F970470000022069
:1022340060260020882600206026002088260020B2
:1022440048570020FEE708B50020FFF791F9012068
:10225400FFF79CF90220FFF799F9F5E708B500208C
:10226400FFF794F90120FFF783F90220FFF78EF9B5
:10227400F5E708B50020FFF789F90120FFF786F993
:102284000220FFF775F9F5E710B594B0FFF7D8F918
:102294001422002108A800F091F91422002102A8B8
:1022A40000F08CF900232A4A0093116C41F080510C
:1022B4001164126C02F080520092009A254A019334
:1022C400116841F440411160126802F44042022452
:1022D4000192CDE90D43019A07944FF0010C1022AD
:1022E4004FF0080EB42307A8CDE90AC2CDE90FE3E5
:1022F400CDE911441394FFF745FB00B1FEE7FFF766
:1023040007FB00B1FEE70F23CDE9023404904FF43C
:1023140080534FF4A050CDE90503052102A8FFF72F
:1023240011FD00B1FEE70C4B0C4918614FF46142FA
:10233400C3E90012C3E9020098610C22D86118466F
:102344005A61FFF727FF00B1FEE714B010BD00BFCC
:102354000038024000700040B4560020004800409D
:10236400114B12491B6812486FF001021A61114B9C
:102374001A7822B10A7850F822D000221A702DE976
:10238400F00F0B7840F823D00B7803220133B3FB12
:10239400F2F202EB42029B1ADBB20B700B7850F89C
:1023A40023D0BDE8F00F704700570020FC560020F2
:1023B400A8560020842600201A491B4A0B6830B511
:1023C4001A4C936153614FF080700023D061136104
:1023D400D360936053602260154A4D68D06395635F
:1023E400556362601363D362936253621362D36171
:1023F400936153611361D360936053600D4A89689C
:10240400A260D063916351631363D3629362536296
:102414001362D361936153611361D360936053601A
:1024240030BD00BF7826002088360020A856002042
:10243400684600206856002080B588B0FFF724FF66
:102444000025244B00951A6B2348244C42F00202C9
:102454001A631B6B059503F002030093012603A97D
:102464000227009B0697CDE90366FFF777F91A4820
:102474002A463146FFF746FAFFF79EFF184AA56041
:1024840044F24F63C4E90023204641F28733CDE987
:102494000155E360A561FFF7B5FD00B1FEE7CDE9A5
:1024A400010001A92046FFF7D9FD054600B1FEE76A
:1024B40023686FF001021A612046FFF7FDFC2846ED
:1024C400FFF71CF83046FFF719F83846FFF716F8FF
:1024D400FEE700BF0038024000040240005700201D
:1024E4000014004010B588B01C4B1D480022009217
:1024F400196B41F008011963196B01F0080100918F
:1025040000990192196B41F008011963196B01F0EC
:1025140008010191019902921A6C42F480221A6412
:102524001B6C03F4802302934FF48072029B0223FA
:10253400CDE9032301210323CDE90513072403A9CE
:102544000794FFF70BF94FF400730548039303A9AD
:102554000794FFF703F908B010BD00BF003802402C
:10256400000C024007B50F4B02689A4216D10022B4
:1025740003F509330192196C41F0200119641B6CB5
:1025840003F02003019311463720019BFFF792F8D3
:10259400372003B05DF804EBFFF7BEB803B05DF875
:1025A40004FB00BF001400407047FEE7FEE7FEE7AF
:1025B400FEE7704770477047FFF758B80244034678
:1025C400934200D1704703F8011BF9E770B50D4D34
:1025D4000D4C641BA4100026A64209D10B4D0C4CD3
:1025E40000F018F8641BA4100026A64205D170BDA3
:1025F40055F8043B98470136EEE755F8043B9847F5
:102604000136F2E7582600205826002058260020DC
:102614005C260020F8B500BFF8BC08BC9E46704795
:0C262400F8B500BFF8BC08BC9E4670472B
:1026300001008000004000000000000000000102D6
:10264000030406070809000000000102030400005B
:08265000E4EBFF7F0100000034
:04265800E911002064
:04265C00C511002084
:102660000004024000040240000402400024F40080
:1026700001000000100000004B2200206122002019
:08268000772200200100000098
:04000005200021F9BD
:00000001FF
